:020000040800F2
:1000000000500020B1600008995B00089B5B00086D
:100010009D5B00089F5B0008A15B000800000000DA
:10002000000000000000000000000000A35B0008CA
:10003000A55B000800000000A75B0008A95B0008A2
:10004000F9600008F9600008F9600008F96000082C
:10005000F9600008F9600008F9600008F96000081C
:10006000B75B0008F9600008F9600008F960000853
:10007000F9600008F9600008F9600008F9600008FC
:10008000F9600008F9600008F9600008F9600008EC
:10009000BD5B0008F9600008F9600008F96000081D
:1000A000F9600008C95B0008F9600008F960000801
:1000B000015C0008F9600008F9600008F9600008B8
:1000C000F9600008F9600008F9600008F9600008AC
:1000D000F96000080D5C0008F9600008F96000088C
:1000E000F9600008F9600008F960000800000000ED
:1000F0000000000000000000000000000000000000
:0C01000000000000000000005FF808F1A3
:10010C0010B5054C237833B9044B13B10448AFF345
:10011C0000800123237010BD480300200000000064
:10012C00CC6C000808B5034B1BB103490348AFF373
:10013C00008008BD000000004C030020CC6C0008BF
:10014C00034613F8012B002AFBD1181A013870470B
:10015C00D0400B1CD1409C46203AD340184352420D
:10016C00634693401843704738B50E4B05461878D4
:10017C004FF47A73B3FBF0F30B4A1068B0FBF3F057
:10018C0000F09EF8044658B90F2D09D802462946AE
:10019C004FF0FF3000F054F8044B20461D6038BD82
:1001AC00012038BD00000020300100200400002098
:1001BC00074A08B51368032043F01003136000F0DE
:1001CC002DF80020FFF7D0FF05F0FEFB002008BD46
:1001DC0000200240034A044B11681B780B44136047
:1001EC00704700BF0C06002000000020014B18686F
:1001FC00704700BF0C06002038B50446FFF7F6FF29
:10020C000546631C1EBF044B1B78E418FFF7EEFF7A
:10021C00401B8442FAD838BD00000020074A000277
:10022C00D36800F4E06023F4E0631B041B0C43F080
:10023C00BF6343F400330343D360704700ED00E029
:10024C00174B30B5DC68C4F30224C4F10703251D39
:10025C00042B28BF0423062D4FF0010598BF002462
:10026C0005FA03F303F1FF3388BF033C1940A140A7
:10027C0005FA04F4013C2240002842EA01024FEA4C
:10028C000212AFBF00F16040064B00F00F00D2B27B
:10029C00A5BFD2B200F561401A5480F8002330BDDE
:1002AC0000ED00E014ED00E00123420900F01F0016
:1002BC0003FA00F0014B43F82200704700E100E024
:1002CC000138B0F1807F0AD2F021064B064A586003
:1002DC0082F823100020072298601A6070470120D2
:1002EC00704700BF10E000E000ED00E0044B042874
:1002FC001A680CBF42F0040222F004021A60704724
:10030C0010E000E0704708B5FFF7FCFF08BD0000E7
:10031C0090F8213010B5022B03D004238363012005
:10032C0010BD03681A6822F00E021A601A6822F0D7
:10033C0001021A60184A93421FD0143293421ED005
:10034C00143293421DD0143293421DD01432934276
:10035C001DD0143293420CBF4FF480134FF08073B6
:10036C000E4A00245360012380F82130436B80F83F
:10037C0020407BB19847204610BD0123F0E71023A5
:10038C00EEE74FF48073EBE74FF48053E8E74FF45C
:10039C008033E5E7184610BD08000240000002401B
:1003AC00114AD36813F0100305D01049CB6943F000
:1003BC000203CB611023D268500706D50B4943F0DA
:1003CC000403CA6942F00102CA61074AD169C9072C
:1003DC0008D50648C16941F00401C161D16921F019
:1003EC000101D161D360704700200240100600204B
:1003FC00064B186910F0800007D0054A5A6002F1CC
:10040C0088325A601869C0F3C0107047002002404F
:10041C0023016745034A0020136943F080031361ED
:10042C00704700BF00200240F8B50646FFF7DEFE1D
:10043C00114C07462546E368D80712D4E3689906A1
:10044C0044BF2023E360EB68DA0606D4EB69DB07D4
:10045C0003D4E86810F0040002D0FFF7A1FF0120DC
:10046C00F8BD731CE7D00EB90320F8BDFFF7BEFE34
:10047C00C01B8642DFD2F7E7002002402DE9F84F7F
:10048C001F4C9946237E0546012B0F46904633D0D0
:10049C0001234CF250302376FFF7C6FF40BB012DF1
:1004AC0003D0022D0CBF022504250026B246DFF82E
:1004BC0054B0320140464946FFF74AFEC4F81CA02E
:1004CC00DBF8103080B243F00103CBF8103027F882
:1004DC0016004CF25030FFF7A7FFDBF8103023F07A
:1004EC000103CBF8103018B90136F3B29D42E0D8B5
:1004FC0000232376BDE8F88F0220BDE8F88F00BFFB
:10050C0010060020002002400022064BDA61064B48
:10051C001A6942F004021A611A6942F040021A6127
:10052C00704700BF10060020002002400022064B3E
:10053C00DA61064B1A6942F002021A6158611A69B3
:10054C0042F040021A617047100600200020024061
:10055C002DE9F041234D07462B7E8846012B3DD0DB
:10056C00012403682C76022B4CF2503013D1FFF788
:10057C005BFF20B1012000232B76BDE8F081FFF753
:10058C00C3FF4CF25030FFF74FFF174A136923F0AB
:10059C0004031361EFE7FFF747FF0028EAD14FF0A0
:1005AC00FF33C8F800302046BE680F4CFA68BB68B1
:1005BC0003EB82239E42DED23046FFF7B7FF4CF2AC
:1005CC005030FFF731FF236923F00203236110B190
:1005DC00C8F80060CFE706F58066E7E70220BDE8C3
:1005EC00F08100BF10060020002002402DE9F74FDB
:1005FC0000221646654BDFF8A4E1DFF8A4C14FF0EA
:10060C0001080C6808FA06F808EA0404A0457FD132
:10061C004D68122D00F0AF8000F28880022D00F0A2
:10062C00A7807CD8002D00F08E80012D00F09E80DC
:10063C004FF00F09FF2C93BF824606F18045083D11
:10064C00D0F800B092BFB500D0F804B0AD0009FAF4
:10065C0005F82BEA080802FA05F588BF00F1040A30
:10066C0048EA0505CAF80050D1F804A01AF0805FDA
:10067C004ED0474D464FAD6926F0030845F00105B5
:10068C00BD61BD6908F1804805F00105019508F5CB
:10069C00803806F0030B019D4FEA8B0BD8F80850FD
:1006AC0009FA0BF925EA09093A4DA84268D005F573
:1006BC008065A84266D005F58065A84264D005F532
:1006CC008065A8420CBF0325042505FA0BF545EA05
:1006DC000905C8F808501D681AF4803F14BF25435B
:1006EC00A5431D605D681AF4003F14BF2543A54364
:1006FC005D609D681AF4801F14BF2543A5439D605F
:10070C00DD681AF4001F14BF2C4325EA0404DC60D6
:10071C000136102E7FF473AF03B0BDE8F08F032DBC
:10072C0022D0112D84D1CA68043281E71A4FBD4200
:10073C0009D012D8DFF86C904D4504D009F58039FA
:10074C004D457FF475AF8A68C2B1012A0CBFC0F861
:10075C001080C0F8148008226AE77545F3D065450F
:10076C00F1D0DFF84490EBE7002261E7CA685FE75D
:10077C00CA6808325CE7CA680C3259E7042257E7AA
:10078C000025A2E70125A0E702259EE70004014011
:10079C000010024000080140000021100000311040
:1007AC000000321000001110000022108368194262
:1007BC0014BF0120002070470AB101617047090481
:1007CC00FBE7000008B5044B5969014202D058619F
:1007DC0005F0EEF808BD00BF000401402DE9F04122
:1007EC00044686B0002860D090F8293403F0FF024C
:1007FC001BB980F8282405F071FA254603236E46B0
:10080C0055F8100B84F8293401F0B2FC0FCD0FC64B
:10081C002B6804F10408336098E80E00206801F09E
:10082C0097FC0021206801F0ADFC002123462246F4
:10083C000126084604F1100582F828109186013132
:10084C000F2982F8296082F82B009063D063106422
:10085C0002F12002F0D10022174683F828229A8652
:10086C0001320F2A83F8297283F82B72C3F838727D
:10087C00C3F83C72C3F8407203F12003EDD16E460D
:10088C000FCD0FC62B68336098E80E00206801F07E
:10089C007BFC012384F82470206884F8293401F04F
:1008AC004BFF002006B0BDE8F0810120FAE790F87C
:1008BC00283410B5012B04460ED0012180F82814E1
:1008CC0005F039FB206801F035FF206801F047FC8A
:1008DC00002084F8280410BD022010BD90F82824B4
:1008EC0010B5012A04460BD0012280F8282484F884
:1008FC002410006801F018FF002084F8280410BDB3
:10090C00022010BD38B5044648B2002801F07F051E
:10091C00B5BF04EB451104EB4111283101F50A7107
:10092C00C00F0D704870CB7094F828340A61012BFD
:10093C0009D00123206884F8283401F041FC002000
:10094C0084F8280438BD022038BD4BB2002B01F0CE
:10095C007F02B5BF00EB421100EB4111283101F5CC
:10096C000A71DB0F10B50A704B7090F828340446EE
:10097C00012B09D0012380F82834006801F092FD86
:10098C00002084F8280410BD022010BD70B500268C
:10099C0001F07F014D01441984F8281205F50A7104
:1009AC000144C4F83C22C4F84032C4F8446284F8D0
:1009BC002962006801F0DAFE304670BD01F00F01CB
:1009CC0000EB4111B1F84402704701F07F0170B5A2
:1009DC004D01441923640026012384F8281005F1E5
:1009EC0028010144E263666484F82930006801F050
:1009FC00BDFE304670BD00002DE9F347044600688B
:100A0C0001F09CFE000400F19880206801F096FE35
:100A1C0041050FD522682046B2F8443023F4806398
:100A2C001B041B0CA2F8443005F08FF90021204662
:100A3C00FFF754FF206801F081FE470408D52268B7
:100A4C00B2F8443023F480431B041B0CA2F844304E
:100A5C00206801F073FE860408D52268B2F8443091
:100A6C0023F400531B041B0CA2F84430206801F043
:100A7C0065FEC5041CD522682046B2F8403023F030
:100A8C0004031B041B0CA2F84030B2F8403023F0D6
:100A9C0008031B041B0CA2F8403005F073F9226804
:100AAC00B2F8443023F480531B041B0CA2F84430DE
:100ABC00206801F043FE00051DD52068B0F84030D9
:100ACC009BB243F00803A0F84030B0F8443023F454
:100ADC0000631B041B0CA0F84430B0F840309BB2F0
:100AEC0043F00403A0F8403001F028FEC10402D406
:100AFC00204605F037F9206801F020FE82050BD561
:100B0C0022682046B2F8443023F400731B041B0CFB
:100B1C00A2F8443005F015F9206801F00FFEC3056A
:100B2C0008D52268B2F8443023F480731B041B0CE4
:100B3C00A2F8443002B0BDE8F0870023C84FDFF8BC
:100B4C002483DFF82493ADF80430ADF80630206828
:100B5C00B0F844309BB2ADF804301B047FF555AFB0
:100B6C00BDF8045015F00F0540F0AB80BDF8041033
:100B7C00038811F010019BB226D13B400380B0F8E2
:100B8C00503094F828209BB203EBC20300EB4300D7
:100B9C00D0F80434E26BC3F3090363641344E363D6
:100BAC00204605F0C7F894F82430002BCFD0226CE7
:100BBC00002ACCD194F82430216843F08003A1F8AA
:100BCC004C3084F82420C2E7ADF80630BDF806306E
:100BDC001A051FD5B0F8503094F828229BB203EBBD
:100BEC00C20300EB4303D3F80C34B4F82C22C3F348
:100BFC000903C4F8443204F22C4101F0B7FE226818
:100C0C002046138823F070031B051B0D138005F081
:100C1C0083F89CE7BDF806301B0498D5038823F0B5
:100C2C0070031B051B0D0380B0F8503094F828227C
:100C3C009BB203EBC20300EB4303D3F80C34C3F3B6
:100C4C000903C4F8443263B1B4F82C22D4F83C1232
:100C5C0001F08CFED4F83C32D4F844221344C4F88E
:100C6C003C320021204605F05DF82268D4F8385259
:100C7C00B2F850103E2D89B201F1060102F58060E8
:100C8C0017D9C5F34F13EE0604BF03F1FF339BB224
:100C9C0049EA83239BB240F8113013889BB203EAD4
:100CAC00080383F4405343F4004343F08003138060
:100CBC004DE7C5F34F03ED0744BF01339BB29B02D5
:100CCC00E8E730F825309BB2ADF80630BDF80630B9
:100CDC0019043FD530F825304FEA451A23F070033C
:100CEC001B051B0D20F8253004EB0A0191F832325C
:100CFC00002B74D1B0F8503091F828229BB20633F7
:100D0C0003EBC20300EB4303D3F80064C6F30906FC
:100D1C0036B1B1F82C223346D1F83C1201F026FE44
:100D2C0004EB0A01D1F84432D1F83C223344C1F827
:100D3C004432D1F840323244C1F83C2223B1D1F8CC
:100D4C003802864280F08680A2449AF82812204607
:100D5C0004F0E8FFBDF806301A067FF5F8AE2068FF
:100D6C006E0130F82530A1199BB23B4020F825309C
:100D7C0091F832300235002B78D1B0F8503091F820
:100D8C0028209BB2023303EBC20300EB4303D3F8DE
:100D9C00003404EB4515C3F309036B601BB18A8D5A
:100DAC00C96B01F0D1FC22682644B2F8503096F899
:100DBC0028109BB2023303EBC10302EB4303D3F8BD
:100DCC000024F36BC2F3090272641A44336CF263AD
:100DDC002046002B40F0858004F0ACFFB7E691F87C
:100DEC00283230F82320DB0012F4804FB0F850206A
:100DFC0092B221D00232134400EB4303D3F80064C7
:100E0C00C6F3090636B13346B1F82E22D1F83C129E
:100E1C0001F0ACFD04EB0A0393F82812226832F8B7
:100E2C00213023F0F0031B051B0D43F4004343F06A
:100E3C00C00322F8213073E70632134400EB43035E
:100E4C00D3F80064C6F30906002EE3D03346B1F89C
:100E5C003022DBE791F828122046FFF797FD79E75F
:100E6C000F8FFFFF8FBFFFFF0080FFFF91F828302F
:100E7C0030F82320DB0012F0400FB0F8502092B273
:100E8C0020D00232134400EB4303D3F8003404EBBC
:100E9C004515C3F309036B601BB1CA8DC96B01F017
:100EAC0053FCA31993F82810226832F8213023F050
:100EBC00F0031B051B0D43F4404343F0800322F861
:100ECC00213070E70632134400EB4303D3F80034AF
:100EDC0004EB4515C3F309036B60002BE1D00A8EBC
:100EEC00DCE7FFF772FD32E6012238B54BB2002B7E
:100EFC0001F07F05B5BF00EB451100EB4111283126
:100F0C0001F50A71DB0FEDB28A700D704B7090F821
:100F1C002834044693420ED080F82824006801F04F
:100F2C008FFB25B904F22C41206801F00BFC00204A
:100F3C0084F8280438BD022038BD38B500244BB2E3
:100F4C00002B01F07F02B5BF00EB421100EB411109
:100F5C00283101F50A71DB0F8C700A704B7090F818
:100F6C0028340546012B09D0012380F82834006869
:100F7C0001F098FB85F82844204638BD022038BD86
:100F8C0011F0800F1BBF01F07F0100EB411000EB53
:100F9C004110283008BF00F50A701AB9827283809C
:100FAC00002070470122C3801B0C82720381F7E77B
:100FBC0003682DE9F341DB07054610D42B689F0726
:100FCC005ED42B68190700F195802B685A0700F145
:100FDC00BF80EA69002A40F02D81002014E0904C7B
:100FEC00636803F00C03042B07D0636803F00C0355
:100FFC00082B0CD16368DE0309D523689C03DDD56F
:10100C006B68002BDAD1012002B0BDE8F0816B686F
:10101C00B3F5803F10D1236843F480332360FFF78E
:10102C00E5F8064623689803C8D4FFF7DFF8801B61
:10103C006428F7D90320E7E79BB9236823F48033AE
:10104C002360236823F480232360FFF7CFF8064640
:10105C0023689903B2D5FFF7C9F8801B6428F7D928
:10106C00E8E7B3F5A02F236803D143F48023236072
:10107C00D1E723F480332360236823F48023CDE766
:10108C00674C636813F00C0F07D0636803F00C0314
:10109C00082B10D16368DA030DD423689B0702D5A3
:1010AC002B69012BAFD123686A6923F0F80343EA5B
:1010BC00C203236085E72A695A4B6AB101221A6080
:1010CC00FFF794F8064623689F07ECD4FFF78EF8D9
:1010DC00801B0228F7D9ADE71A60FFF787F80646A0
:1010EC00236898077FF56DAFFFF780F8801B022807
:1010FC00F6D99FE7AA694A4C4B4BDAB101221A6028
:10110C00FFF774F80646636A9B070DD54FF4FA5245
:10111C00464B1B68B3FBF2F3019300BF019B5A1EB5
:10112C000192002BF9D150E7FFF760F8801B0228E1
:10113C00E9D97FE71A60FFF759F80646636A9F07FB
:10114C007FF543AFFFF752F8801B0228F6D971E701
:10115C00334CE369D80024D40127E36943F080536E
:10116C00E361E36903F080530093009B304E3368D6
:10117C00D90518D5EB68012B26D1236A43F001035E
:10118C002362FFF733F841F288368046236A9B07C7
:10119C003FD5002F3FF41DAFE36923F08053E3618B
:1011AC0017E70027E2E7336843F480733360FFF7F7
:1011BC001DF880463368DA05DCD4FFF717F8A0EB8E
:1011CC0008006428F6D935E7ABB9236A41F28838B0
:1011DC0023F001032362236A23F004032362FFF745
:1011EC0005F80646236A9807D3D5FEF7FFFF801B48
:1011FC004045F7D91EE7052B236A03D143F00403BE
:10120C002362BAE723F001032362236A23F0040369
:10121C00B6E7FEF7EBFFA0EB0800B042B6D909E742
:10122C000010024000004242800442423001002083
:10123C0000700040224C636803F00C03082B3FF451
:10124C00E2AE00231F4E022A33602BD1FEF7CEFFF5
:10125C000746236899011FD42B6AB3F5803F05D14B
:10126C006268A96822F400320A436260696A6268A3
:10127C000B4322F474121343636001233360FEF7B3
:10128C00B5FF054623689A013FF5A7AEFEF7AEFF02
:10129C00401B0228F6D9CDE6FEF7A8FFC01B02289A
:1012AC00D7D9C7E6FEF7A2FF054623689B017FF559
:1012BC0094AEFEF79BFF401B0228F6D9BAE600BF9E
:1012CC00001002406000424230B5194B87B002ACAE
:1012DC0003F11005224618685968083303C2AB4263
:1012EC001446F7D101238DF80430022311498DF8EF
:1012FC0005304B6803F00C02082A17D1C3F3834264
:10130C0006A80244DB0312F8102C0CD54B680A48D3
:10131C00C3F34043504306AA134413F8143CB0FBE8
:10132C00F3F007B030BD05485043FAE70248F8E740
:10133C00E46C00080010024000127A0000093D0025
:10134C004D4A2DE9F0411368054603F007038B4223
:10135C000E4628D32A68910732D4D20738D4464A8D
:10136C00136803F007039E4273D32A68434C12F0B0
:10137C00040F79D1130706D563682A6923F46053E7
:10138C0043EAC2036360FFF79FFF63683C4AC3F301
:10139C000313D35CD8403B4B18600020FEF7E4FEEF
:1013AC000020BDE8F081136823F007030B431360A2
:1013BC00136803F007039942CCD00120BDE8F081FB
:1013CC002E49A8684B6823F0F00303434B60C4E735
:1013DC006A682A4C012A23681CD113F4003FECD014
:1013EC00636841F2883823F0030313436360FEF70C
:1013FC00FDFE6B680746012B14D1636803F00C03E8
:10140C00042BACD0FEF7F2FEC01B4045F5D90320EF
:10141C00BDE8F081022A02D113F0007FDFE713F060
:10142C00020FDCE7022B0FD1636803F00C03082BCF
:10143C0095D0FEF7DBFEC01B4045F5D9E7E7FEF77C
:10144C00D5FEC01B4045E2D8636813F00C0FF6D1F3
:10145C0085E7136823F0070333431360136803F025
:10146C0007039E42A9D180E76368E96823F4E0632F
:10147C000B4363607EE700BF002002400010024077
:10148C00F979000830010020014B1868704700BF43
:10149C0030010020044B054A5B68C3F30223D35C84
:1014AC00034A1068D840704700100240097A0008BF
:1014BC0030010020044B054A5B68C3F3C223D35CA4
:1014CC00034A1068D840704700100240097A00089F
:1014DC003001002003682DE9F341D907054620D5DA
:1014EC00354CE369DA0032D40127E36943F08053C9
:1014FC00E361E36903F080530193019B2F4E336842
:10150C00DB0526D5236A13F4407336D1236A6A6847
:10151C0023F44073134323621FB1E36923F0805318
:10152C00E3612868830706D5234AA968536823F426
:10153C0040430B43536010F010001BD01E4AE96867
:10154C005368002023F480030B43536012E0002700
:10155C00D4E7336843F480733360FEF747FE80466C
:10156C003368D805CED4FEF741FEA0EB0800642802
:10157C00F6D9032002B0BDE8F0816A6802F440722B
:10158C009342C3D001200E4A236A1060002023F43A
:10159C00407110602162D907B8D5FEF727FE41F2E1
:1015AC0088380646236A9A07B0D4FEF71FFE801BC4
:1015BC004045F7D9DDE700BF001002400070004045
:1015CC00400442422DE9F0410446884617461D4628
:1015DC00069E2268936838EA03030CBF012300239C
:1015EC009F4202D10020BDE8F0816B1CF2D055BBAC
:1015FC0023685A6822F0E0025A606268B2F5827F72
:10160C000AD1A268B2F5004F02D0B2F5806F03D1B7
:10161C001A6822F040021A60A26AB2F5005F09D182
:10162C001A6822F400521204120C1A601A6842F45E
:10163C0000521A60012384F851300023032084F8EF
:10164C005030BDE8F081FEF7D1FD801B8542C0D83B
:10165C00CEE713B50B460092802100220446FFF71B
:10166C00B1FF20B10320636D43F02003636502B02A
:10167C0010BD2DE9F043994690F8503085B0012B00
:10168C0004460D4616460C9F00F0EE80012380F8B0
:10169C005030FEF7ABFD94F851308046DBB2012B95
:1016AC0061680AD0B1F5827F40F0DC80A268002A24
:1016BC0040F0D880042B40F0D580002D4ED0002E69
:1016CC004CD0B9F1000F49D094F85130A663012BDE
:1016DC0004BF052384F851300023636523646364DD
:1016EC002368A4F83E90A4F836901A68A4F83C90AD
:1016FC00500658BF1A68256358BF42F04002A4F840
:10170C00349058BF1A60E268B2F5006F5DD119B120
:10171C00E28E92B2012A06D135F8022BDA60E38E02
:10172C00013B9BB2E3864FF00109E38E9BB2BBB940
:10173C00E38F9BB2A3B9CDF800803B460122022176
:10174C002046FFF73FFF002835D142463946204658
:10175C00FFF77FFF00287AD02023636501202BE060
:10176C00B9F1000F0FD0E38E9BB263B123689A6876
:10177C00910708D54FF0000935F8022BDA60E38E9B
:10178C00013B9BB2E386E38F9BB263B123689A68FB
:10179C00D20708D54FF00109DB6826F8023BE38F2E
:1017AC00013B9BB2E387781CBFD0FEF71FFDA0EB7B
:1017BC0008008742B9D80320012384F85130002354
:1017CC0084F8503005B0BDE8F08319B1E28E92B2C6
:1017DC00012A06D115F8012B1A73E38E013B9BB23B
:1017EC00E3864FF00109E38E9BB21BB9E38F9BB2EA
:1017FC00002BA0D0B9F1000F0FD0E38E9BB263B1D8
:10180C0023689A68910708D54FF000092A780135AA
:10181C001A73E38E013B9BB2E386E38F9BB26BB1F1
:10182C0023689A68D20709D54FF00109DB680136A5
:10183C0006F8013CE38F013B9BB2E3877B1CD2D0C3
:10184C00FEF7D4FCA0EB08008742CCD8B3E7A36822
:10185C00002BB1D123680390DA6803929B68039341
:10186C00039BA9E70220A7E70220ABE710B50446CB
:10187C00002834D00023836290F851300BB904F067
:10188C00F3F80223216884F851300B68A06823F028
:10189C0040030B606368A2690343E068034320695B
:1018AC00034360690343E0690343206A0343A06A6E
:1018BC00034302F4007003430B60120C636A02F0E2
:1018CC0004021A43E36A4A600B61CB69002023F4DB
:1018DC000063CB610123606584F8513010BD012099
:1018EC0010BD0223026880F83D30136843F00103F9
:1018FC001360012380F83D300020704703680020FE
:10190C00DA6842F00102DA601A6842F001021A60E9
:10191C00704790F83C3070B5012B4FF002031CD08F
:10192C00012280F83D30036880F83C209A6822F44C
:10193C007F4222F077029A600A68402A79D019D83F
:10194C00102A00F093800AD8002A00F08980012325
:10195C0080F83D30002380F83C30184670BD202ABA
:10196C0000F08A80302AF2D19A6822F0700242F09C
:10197C00370236E0702A36D01BD8502A42D0602A63
:10198C00E5D11C6A4D6824F01004CE681C6299697C
:10199C001A6A21F4704122F0A00242EA051241EACF
:1019AC00063199611A629A6822F0700242F067025D
:1019BC0017E0B2F5805F11D0B2F5005FC7D18A682D
:1019CC004D689C68C9682A4324F47F4442EA01228A
:1019DC0022439A609A6842F4804202E09A6822F0AC
:1019EC0007029A60B3E78A684D689C68C9682A4305
:1019FC0024F47F4442EA012222439A609A6842F01E
:101A0C007702EEE74C68CE68196A1D6A21F00A016C
:101A1C0025F001051D629A69214322F0F00242EA89
:101A2C0006129A6119629A6822F0700242F057020B
:101A3C00D7E74C68CE68196A1D6A21F00A0125F0B7
:101A4C0001051D629A69214322F0F00242EA061256
:101A5C009A6119629A6822F0700242F04702C0E75C
:101A6C009A6822F0700242F00702BAE79A6822F0F4
:101A7C00700242F01702B4E79A6822F0700242F04A
:101A8C002702AEE77047704770477047704703688E
:101A9C0010B51A69044691070ED5DA6892070BD572
:101AAC006FF002021A6101229B6902779B0777D0C3
:101ABC00FFF7EAFF0023237723681A69500710D534
:101ACC00DA6851070DD56FF004021A6102229B6986
:101ADC00227713F4407F204668D0FFF7D5FF002310
:101AEC00237723681A6912070FD5DA6810070CD50B
:101AFC006FF008021A610422DB69227799072046ED
:101B0C005AD0FFF7C1FF0023237723681A69D20646
:101B1C0010D5DA68D0060DD56FF010021A610822C4
:101B2C00DB69227713F4407F20464BD0FFF7ACFFE4
:101B3C000023237723681A69D10708D5DA68D207FE
:101B4C0005D56FF0010220461A61FFF79BFF236851
:101B5C001A69100608D5DA68110605D56FF08002EF
:101B6C0020461A6100F0ABF823681A69520608D5B2
:101B7C00DA68500605D56FF0400220461A61FFF76F
:101B8C0085FF23681A69910622D5DA6892061FD55B
:101B9C006FF020022046BDE810401A6100F08EB8AC
:101BAC00FFF771FF2046FFF770FF83E7FFF76BFF2E
:101BBC002046FFF76AFF92E7FFF765FF2046FFF725
:101BCC0064FFA0E7FFF75FFF2046FFF75EFFAFE77C
:101BDC0010BD00001A4A036890420AD0B0F1804F41
:101BEC0007D0A2F59432904203D002F58062904265
:101BFC0015D14A6823F070031343114A90420AD05E
:101C0C00B0F1804F07D0A2F59432904203D002F588
:101C1C008062904203D1CA6823F4407313434A692B
:101C2C0023F08003134303608B68C3620B688362E9
:101C3C00034B984204BF0B69036301234361704754
:101C4C00002C014010B50446A0B190F83D3003F0D3
:101C5C00FF021BB980F83C2003F030FF0223206800
:101C6C0084F83D30211DFFF7B5FF0123002084F8D7
:101C7C003D3010BD012010BD90F83C3010B5012B4B
:101C8C004FF0020318D080F83D3003680C685A6896
:101C9C00496822F070025A605A6822435A609A6866
:101CAC0022F080029A609A680A439A60012380F8B5
:101CBC003D30002380F83C30184610BD704770470B
:101CCC000368DA6822F49072DA605A6922F0010231
:101CDC005A61202380F83A30704700002DE9F04714
:101CEC000568C2682B69016923F4405313432B61C7
:101CFC008368EA680B43416922F4B05222F00C026B
:101D0C000B431343EB606B69826923F440731343F9
:101D1C006B61404B81469D424FF0190446D1FFF751
:101D2C00C9FB04FB00F3D9F804604FF06408B6005B
:101D3C00B3FBF6F3B3FBF8F31E01FFF7BBFB6043F9
:101D4C00D9F804309B00B0FBF3F7FFF7B3FB60430B
:101D5C00D9F804309B00B0FBF3F3B3FBF8F308FBAA
:101D6C0013731B013233B3FBF8F303F0F007FFF7E7
:101D7C00A1FB6043D9F804209200B0FBF2FAFFF704
:101D8C0099FB6043D9F804309B00B0FBF3F3B3FB31
:101D9C00F8F308FB13A31B013233B3FBF8F303F086
:101DAC000F033B433344AB60BDE8F087FFF772FB96
:101DBC0004FB00F3D9F804604FF06408B600B3FBE1
:101DCC00F6F3B3FBF8F31E01FFF764FB6043D9F89D
:101DDC0004309B00B0FBF3F7FFF75CFB6043D9F8D2
:101DEC0004309B00B0FBF3F3B3FBF8F308FB137365
:101DFC001B013233B3FBF8F303F0F007FFF74AFB98
:101E0C006043D9F804209200B0FBF2FAFFF742FBD2
:101E1C00B7E700BF00380140F8B504460E46174638
:101E2C001D4621680B6836EA030301D10020F8BD7A
:101E3C006B1CF7D095B923680320DA6822F4D072B2
:101E4C00DA605A6922F001025A61202384F8393091
:101E5C0084F83A30002384F83830F8BDFEF7C6F920
:101E6C00C01B8542DDD2E6E710B5044640B390F8BE
:101E7C00393003F0FF021BB980F8382003F052FE12
:101E8C002423226884F83930D368204623F4005385
:101E9C00D360FFF723FF236800201A6922F49042D5
:101EAC001A615A6922F02A025A61DA6842F4005225
:101EBC00DA602023E06384F8393084F83A3010BDBE
:101ECC00012010BD2DE9F0411F4690F83930044631
:101EDC00202B0D4690464ED1002949D0002A47D0E0
:101EEC0090F83830012B46D0012380F8383000238D
:101EFC00C363212380F83930FEF778F90646A4F83D
:101F0C002480A4F82680E38C9BB26BB93B46324606
:101F1C0040212046FFF780FFA8B9202384F8380021
:101F2C0084F83930BDE8F081E38C3246013B9BB23A
:101F3C00E384A3688021B3F5805F20463B460ED135
:101F4C00FFF76AFF10B10320BDE8F0812B882268EF
:101F5C00C3F308035360236943B90235D3E7FFF792
:101F6C005BFF0028EFD123682A785A600135CAE755
:101F7C000120BDE8F0810220BDE8F0817047704778
:101F8C0090F83A3010B5222B36D183680169B3F53D
:101F9C00805F0268836A23D15268E9B9C2F30802F0
:101FAC0023F8022B8362C48D013CA4B2C4858CB986
:101FBC000368DA6822F02002DA60DA6822F48072B0
:101FCC00DA605A6922F001025A61202380F83A3013
:101FDC00FFF7D5FF002010BDD2B223F8012BE1E7AB
:101FEC0021B9591C526881621A70DCE75268591C7D
:101FFC00816202F07F02F7E7022010BD70470000FB
:10200C00036870B51A6804461607D9685D6907D16C
:10201C0096065AD58D0658D5BDE87040FFF7B0BF6F
:10202C0015F0010502D111F4907F4ED0D30705D5E0
:10203C00CE0542BFE36B43F00103E363500704D5C5
:10204C001DB1E36B43F00203E363930704D51DB1A9
:10205C00E36B43F00403E363160704D51DB1E36B94
:10206C0043F00803E363E36B002B66D0950604D5BD
:10207C00880602D52046FFF783FF236820465D695A
:10208C00E26B110702D415F040051AD0FFF718FEC9
:10209C0023685A69520610D55A69606B22F04002C7
:1020AC005A6150B1254B4363FEF732F9002844D0F6
:1020BC00606BBDE87040436B18472046FFF79EFFEE
:1020CC0070BDFFF79BFFE56370BD160627D50D06A7
:1020DC0025D594F83920212A2FD1A268B2F5805F3A
:1020EC00226A17D11188C1F308015960216979B9A5
:1020FC0002322262E28C013A92B2E284EAB9DA68E4
:10210C0022F08002DA60DA6842F04002DA6070BDD8
:10211C000132EEE7511C216212785A60EAE7500650
:10212C000BD54A0609D5DA68204622F04002DA605F
:10213C00202384F83930FFF721FF70BD4D210008B2
:10214C0008B50023406AC385C384FFF757FF08BD59
:10215C0084B001A880E80E0004B000207047B0F8ED
:10216C0040309BB243F43F43A0F84030002070470E
:10217C00B0F8403023F474535B045B0CA0F840308F
:10218C00002070470020704784B010B503AC84E881
:10219C000E00BDE8104000220123A0F84030A0F84A
:1021AC004020A0F84420A0F85020B0F8403004B0F3
:1021BC009BB243F43F43A0F84030104670470000F8
:1021CC0070B5CB780A78032B0FD8DFE803F00264E4
:1021DC00505930F8223023F4EC4323F070031B04E5
:1021EC001B0C43F4007320F8223040F60F730C786C
:1021FC0030F8242044F4004545F080051A402A4369
:10220C0020F824208A7A0D78002A40F097804C78A8
:10221C008A88002C4AD0B0F850405208A4B204EB83
:10222C00C50400EB44045200C4F800240C7830F8C8
:10223C002420520608D530F82420134043F40043E0
:10224C0043F0C00320F824300A7830F8223023F40D
:10225C00E04323F040031B041B0C83F0200343F4E6
:10226C00004343F0800320F82230002070BD30F88A
:10227C00223023F4EC4323F070031B041B0CB2E755
:10228C0030F8223023F4EC4323F070031B041B0CB6
:10229C0043F4C063A7E730F8223023F4EC4323F077
:1022AC0070031B041B0C43F480639CE7B0F85030A4
:1022BC0052089BB2043303EBC503520000F5806453
:1022CC0044F81320B0F850200D6992B20B78063206
:1022DC003E2D02EBC30229D9C5F34F16EB0604BF02
:1022EC0006F1FF339EB26E4B43EA86239BB244F851
:1022FC0012300A7830F822305E040BD530F82230D8
:10230C0023F0F0031B051B0D43F4404343F0800303
:10231C0020F822300A7830F8223023F4804323F05E
:10232C0070031B041B0C83F4405398E7C5F34F0355
:10233C00ED0744BF01339BB29B02D7E730F8252051
:10234C0022F4F8721205120D42F4014242F080029E
:10235C0020F82520B0F850200C7892B202EBC40281
:10236C00CC8800F580656408640045F81240B0F82C
:10237C0050200C7892B2043202EBC4020C8964082F
:10238C00640045F812404A780C78002A47D130F89E
:10239C002420550408D530F82420134043F440433E
:1023AC0043F0800320F824300A7830F822305C06A1
:1023BC000BD530F8223023F0F0031B051B0D43F432
:1023CC00004343F0C00320F822300A7830F8223062
:1023DC0023F0F0031B051B0D43F4004343F0C00333
:1023EC0020F8223048F280020C7830F8243023F4A4
:1023FC00804323F070031B041B0C83F440531343E2
:10240C0020F82430097830F8213023F4E04323F00D
:10241C0040031B041B0C134320F8213025E730F834
:10242C002420520408D530F82420134043F44043B0
:10243C0043F0800320F824300A7830F822305B0611
:10244C000BD530F8223023F0F0031B051B0D43F4A1
:10245C00004343F0C00320F822300A7830F82230D1
:10246C0023F0F0031B051B0D43F4404343F08003A2
:10247C0020F8223048F280020C7830F8243023F413
:10248C00E04323F040031B041B0C134320F82430BF
:10249C00097830F8213023F4804323F07003B8E737
:1024AC000080FFFF10B58C7A4A780B78CCBB02B356
:1024BC0030F8232052060BD530F8232022F0F002FE
:1024CC001205120D42F4004242F0C00220F8232003
:1024DC000A7830F8223023F4E04323F040031B0445
:1024EC001B0C43F4004343F0800320F822300020FF
:1024FC0010BD30F8232054040BD530F8232022F0E3
:10250C00F0021205120D42F4404242F0800220F813
:10251C0023200A7830F8223023F4804323F0700310
:10252C00DDE7002A48D130F8232052040BD530F8CF
:10253C00232022F0F0021205120D42F4404242F028
:10254C00800220F823200A7830F822305C060BD564
:10255C0030F8223023F0F0031B051B0D43F400432D
:10256C0043F0C00320F822300A7830F8223023F0F0
:10257C00F0031B051B0D43F4004343F0C00320F88C
:10258C00223048F280020C7830F8243023F4804357
:10259C0023F070031B041B0C134320F82430097820
:1025AC0030F8213023F4E04323F040031B041B0CD0
:1025BC00134320F821309AE730F8232052040BD52E
:1025CC0030F8232022F0F0021205120D42F44042A2
:1025DC0042F0800220F823200A7830F822305B0683
:1025EC000BD530F8223023F0F0031B051B0D43F400
:1025FC00004343F0C00320F822300A7830F8223030
:10260C0023F0F0031B051B0D43F4404343F0800300
:10261C0020F8223048F280020C7830F8243023F471
:10262C00E04323F040031B041B0C134320F824301D
:10263C00097830F8213023F4804323F07003B5E798
:10264C000A788AB9038823F4804323F040031B04DF
:10265C001B0C83F4805383F0100343F4004343F0CA
:10266C0080030380002070474B7883B130F8223010
:10267C0023F4E04323F040031B041B0C83F01003F2
:10268C0043F4004343F0800320F82230EAE730F8AB
:10269C00223023F4804323F070031B041B0C83F4BF
:1026AC008053EDE74B780A7813B330F822305B0691
:1026BC000BD530F8223023F0F0031B051B0D43F42F
:1026CC00004343F0C00320F822300A7830F822305F
:1026DC0023F4E04323F040031B041B0C83F0300372
:1026EC0043F4004343F0800320F82230002070476D
:1026FC0030F822305B040BD530F8223023F0F00395
:10270C001B051B0D43F4404343F0800320F822309B
:10271C000A7830F8223023F4804323F070031B0432
:10272C001B0C83F44053DBE711B98023A0F84C3029
:10273C00002070470020704700207047B0F844001C
:10274C0080B270470020704710B50024013300F5AB
:10275C0080605B1000EB4202A34200D110BD31F847
:10276C00020B22F824000134F6E7000070B50E4687
:10277C008A694978054601293369B07A66D19A424B
:10278C001C469BBF00231446D21AB36188BFB261AA
:10279C00A3B210BBB28871692846FFF7D5FFB5F814
:1027AC00503032789BB2023303EBC20305EB430388
:1027BC00C3F80044327835F8223023F4E04323F098
:1027CC0040031B041B0C83F0300343F4004343F021
:1027DC00800325F82230002070BD327835F82210A5
:1027EC00D20011F0400FB5F8501089B21AD0023156
:1027FC000A4405EB4202C2F800443289716928464A
:10280C00FFF7A2FF737832789BB935F8223023F0AA
:10281C00F0031B051B0D43F4004343F0C00325F8E4
:10282C002230C7E70A4405EB4202C2F80444F2889E
:10283C00E4E7012BBED135F8223023F0F0031B0561
:10284C001B0D43F4404343F08003E8E79A4293BFE7
:10285C000023D21AB261B36198BF1346327870BBB1
:10286C00B5F850103E2B89B201F1060101EBC20103
:10287C0005F5806018D9C3F34F12DB0604BF02F1D3
:10288C00FF339AB2384B43EA82239BB240F81130A3
:10289C00327835F8223023F4804323F070031B0484
:1028AC001B0C83F4405390E7C3F34F02DC0744BF87
:1028BC00013292B2920292B240F81120E8E7B9B913
:1028CC00B5F850103E2B89B201F1020101EBC201A7
:1028DC0005F5806428D9C3F34F10DA0604BF00F164
:1028EC00FF3290B2204A42EA802292B244F8112080
:1028FC00727831785ABBB5F850203E2B92B202F167
:10290C00060202EBC10205F5806015D9C3F34F1125
:10291C00DC0604BF01F1FF3399B2134B43EA812368
:10292C009BB240F81230B3E7C3F34F02D80744BF51
:10293C00013292B29202D8E7C3F34F01DB0744BFD6
:10294C00013189B2890289B240F81210A0E7012A3C
:10295C009ED1B5F8502092B2023202EBC10205EBC7
:10296C004202C2F8003493E70080FFFF10B5002448
:10297C00013300F580605B1000EB4202A34200D1F2
:10298C0010BD52F8240021F814000134F6E7D0F8F9
:10299C0018321BB10020C3F8140270470220704794
:1029AC00D0F81C3210B5D0F818425BB194F8000284
:1029BC00FF2807D09B6894F8012221469847FF23F3
:1029CC0084F80032002010BD432303800048704778
:1029DC0040000020432303800048704784000020FF
:1029EC004323038000487047D40000200A2303804F
:1029FC0000487047C800002038B50546D0F818428A
:102A0C0003F08EFAD5F81832C4F80C024BB1D5F895
:102A1C001C3204F50371DB68D4F8040298470020DB
:102A2C0038BD022038BD0000F8B50F78064617F007
:102A3C0060030C4623D0202B19D1CA884B78C2B125
:102A4C003906D0F818520BD5D0F81C1218468F68DE
:102A5C002946B84729463046E28800F072FB06E06A
:102A6C0085F8003285F80122294600F07FFB002012
:102A7C00F8BDD0F81C0284681846A047F7E74B78DD
:102A8C000A2BF4D101220149E7E700BF64030020BF
:102A9C0010B50446812103F0DFF90121204603F033
:102AAC00DBF98221204603F0D7F9D4F8183253B160
:102ABC00D4F81C325B689847D4F8180203F03AFA41
:102ACC000023C4F81832002010BDF8B5037C04466E
:102ADC007BBB4FF400730222812103F0ADF94FF45C
:102AEC00007302220121204603F0A6F908230322D9
:102AFC008221204603F0A0F94FF4077003F016FA78
:102B0C000646C4F8180220B30025D4F81C321B6802
:102B1C009847277CC6F81452C6F8185287B94FF458
:102B2C000073D6F804220121204603F0EBF9384655
:102B3C00F8BD40230222812103F07EF94023D0E727
:102B4C004023D6F804220121204603F0DBF9284665
:102B5C00F8BD0120F8BD19B1C0F81C120020704757
:102B6C0002207047D0F818320020C3F80812C3F8BE
:102B7C0010227047D0F818320020C3F804127047A6
:102B8C00D0F8182210B562B1047C44B94FF400732C
:102B9C00D2F80422012103F0B5F9002010BD402326
:102BAC00F6E7022010BD08B580B1D0F8143213B18D
:102BBC000023C0F8143209B1C0F8101201230270BE
:102BCC0080F8FC3103F0E2F8002008BD022008BDBB
:102BDC0019B1C0F81412002070470220704708B5D4
:102BEC0003F01CF9002008BD08B5D0F814320BB95D
:102BFC00022008BD1B6898470028F9D108BD08B50C
:102C0C00D0F814325B689847002008BD38B500F541
:102C1C0002750446284600F064FA012394F8081261
:102C2C00C4F8F431B4F80E32C4F8F83101F01F03D3
:102C3C00012B0ED007D3022B10D001F080012046BF
:102C4C0003F018F903E02946204600F0D5F80020DF
:102C5C0038BD2946204600F0C9F9F8E72946204638
:102C6C0000F0DCF9F3E738B50446154611BBD0F893
:102C7C00F431032B0FD1D0F80C31D0F81021934242
:102C8C000BD99B1A9A4228BF1A46C0F80C3192B243
:102C9C00294600F07AFA002038BDD0F814321B69AE
:102CAC0023B190F8FC21032A00D19847204600F06C
:102CBC0074FAF0E7D0F814329B69002BEBD090F843
:102CCC00FC21032AE7D19847E5E770B51346044683
:102CDC000E4600293DD1D0F8F421022A0FD1C56946
:102CEC00026A954214D9AA1AC261194692B200F02E
:102CFC0035FA33461A461946204603F003F994F880
:102D0C000032012B02D1002384F80032002070BD68
:102D1C008369B3FBF2F502FB153565B99A420AD803
:102D2C00D0F8F821934206D22A4600F017FAC4F8DC
:102D3C00F8512B46DEE7D4F81432DB682BB194F84B
:102D4C00FC21032A01D120469847204600F030FA96
:102D5C00D5E7D0F814325B69002BD7D090F8FC2162
:102D6C00032AD3D19847D1E7002238B50446402531
:102D7C001146402303F060F82B46C4F81051002292
:102D8C008021204603F058F8012384F8FC31D4F854
:102D9C00183225622BB1D4F8143221795B682046A5
:102DAC009847002038BD01740020704790F8FC3122
:102DBC0080F8FD31042380F8FC310020704790F836
:102DCC00FD3180F8FC310020704708B590F8FC21EB
:102DDC00032A04D1D0F81432DB6903B198470020E0
:102DEC0008BD10B50446802103F044F82046BDE828
:102DFC001040002103F03EB837B54B7804460D4621
:102E0C00092B79D8DFE813F0C900E5007800D90068
:102E1C0078006D000A007800B9008D004B881A0A02
:102E2C00013A062A68D8DFE802F0041C29676749D2
:102E3C005200D0F810321B680DF10601207C984727
:102E4C00BDF80620002A67D0EB88002B64D09A428C
:102E5C0028BF1A460146ADF80620204600F071F94D
:102E6C005AE0027CD0F8143232B99B6A0DF106009C
:102E7C00984702234370E3E7DB6AF7E7DBB2052BE5
:102E8C003AD8DFE803F003070B0F1317D0F8103212
:102E9C005B68D1E7D0F810329B68CDE7D0F81032E0
:102EAC00DB68C9E7D0F810321B69C5E7D0F81032DF
:102EBC005B69C1E7D0F810329B69BDE7037CDBB9D5
:102ECC00D0F814320DF106005B6B9847B8E7037C21
:102EDC0093B9D0F814320DF106001B6B98470723F9
:102EEC00C8E78B8843B9CB8833B990F8FC318D781F
:102EFC00032B05F07F0503D12046FFF772FF0BE093
:102F0C0080F8FE51294602F0E1FF204600F045F919
:102F1C002DB1022384F8FC31002003B030BD012315
:102F2C00F8E78978304D01292970E5D890F8FC3103
:102F3C00022B0CD0032BDFD1B1B90223416080F8F6
:102F4C00FC31FFF75CFE204600F027F9E4E700298E
:102F5C00F9D001210323416080F8FC312046FFF7B2
:102F6C0043FE0228EFD1C7E741680129EBD0C9B273
:102F7C00FFF745FE29786160F0E7CA88012ABBD1CA
:102F8C0090F8FC31022B03D0032BB5D1011D64E763
:102F9C000146002341F8083F5FE790F8FC31023B03
:102FAC00012BA9D80123C360D0F804320BB1032341
:102FBC00C360022204F10C014FE74B88012BABD10B
:102FCC00C4F80432D4F8143229469B68204698473A
:102FDC00B9E790F8FC31023B012B8DD84B88012BC3
:102FEC009AD10023ECE700BF6503002038B590F8B8
:102FFC00FC310446032B0D460DD10B79012B0AD85D
:10300C00D0F814329B689847EB8813B9204600F02F
:10301C00C4F8002038BDFFF7E4FEFAE770B50A7873
:10302C008E8802F06002202A04460D46F3B205D1C8
:10303C00D0F814329B689847002070BD4A78012A5A
:10304C001CD02AD3032AF7D190F8FC21022A40D0B5
:10305C00032A02D0FFF7C5FEEEE74A8822B95E06C6
:10306C0002D0194602F006FFD4F8143229469B68A8
:10307C0020469847204600F090F8DDE790F8FC21B8
:10308C00022A26D0032AE5D14A88002AD4D159062F
:10309C00F0D0194602F0FCFEE6E790F8FC21022A7B
:1030AC0017D0032AD6D103F07F0516F0800F00EB62
:1030BC000515194614BF143505F5827502F0F6FE98
:1030CC0068B101232B6002222946204600F039F812
:1030DC00B2E75A06B0D0194602F0CCFEACE7286035
:1030EC00F1E70B7803704B784370CA788B7803EB5D
:1030FC00022343804A790B7903EB02238380CA793C
:10310C008B7903EB0223C380704730B588B1054639
:10311C002B1A15F8014BDBB2002CF9D15B000233F2
:10312C0013800B7003234B700223013810F8015FDE
:10313C0005B930BD5A1CCD54D2B20233DBB28C541B
:10314C00F4E71346022210B5C0F8F42183610A4655
:10315C00C361002102F0C8FE002010BD08B5134663
:10316C000A46002102F0C0FE002008BD13460322CF
:10317C0010B5C0F8F421C0F808310A46C0F80C317B
:10318C00002102F0BFFE002010BD08B513460A4610
:10319C00002102F0B7FE002008BD08B50423C0F8DA
:1031AC00F43100231A46194602F09EFE002008BD99
:1031BC0008B50523C0F8F43100231A46194602F06D
:1031CC00A1FE002008BD0000024A137801331370E1
:1031DC00704700BF6603002030B50446254B85B010
:1031EC0018689B8802AA0D46938002900092432394
:1031FC004421204601F0ACF90122002384F82A2056
:10320C0084F82B20062184F82E20224684F82C10DA
:10321C00A376E3762377637784F82D3084F82F50E8
:10322C0084F8305004F1450102F8315F02F8013F97
:10323C008A42FBD1631D04F10B0213F8011F9A4261
:10324C0083F84010F9D1002104F14B0304F215125C
:10325C0003F8011F9A42FBD18222632384F81721C1
:10326C00532284F8163184F8182184F8193105B0EA
:10327C0030BD00BFF46C000838B50446FFF7ACFF56
:10328C00352384F81A310123372284F81B3184F852
:10329C001C3184F81F31032384F81D2184F820315C
:1032AC000222FF230025204684F81E2184F82131B8
:1032BC0084F82251F82101F097F9284638BDB1F570
:1032CC008E7F30B504D94FF48D72931C994201DC7A
:1032DC00002309E08418637833B19D188D42F7DA26
:1032EC00855C352D02D1A378184630BD02331344CA
:1032FC009AB2EAE7FF2909D990F83A3023B1044B86
:10330C00D0F83A201A600123184670470023FBE7D7
:10331C0077030020FF2911D990F82330432B0DD1CE
:10332C0090F82A30022B09D190F82F30934205D116
:10333C0090F83000C31A584258417047002070472B
:10334C00FF2905D990F82E00831E5842584170472A
:10335C0000207047B1F58E7F2DE9F74F40F28C803D
:10336C0000254FF48D742E464FF6FD78434FDFF851
:10337C0014913A88DFF810A10197A31C994204DD3F
:10338C00631C00EB030EC35C33B90DB1019B1A80B7
:10339C00012003B0BDE8F08F03EB040C8C45F4DA8C
:1033AC0010F804B000EB040CBBF1030F32D009D8B9
:1033BC00BBF1000F1CD0BBF1010F1BD002331C441E
:1033CC00A4B2DAE7BBF1330F35D0BBF1360FF5D130
:1033DC00042BF3D14FF0000E0CEB0E0B9BF802B04C
:1033EC000EF809B00EF1010EBEF1040FF4D1E5E7B1
:1033FC000C46E3E7042BE1D14FF0000E0CEB0E0B67
:10340C009BF802B00EF80AB00EF1010EBEF1040FDB
:10341C00F4D1D3E7042BD1D14FF0000E0CEB0E0BF3
:10342C009BF802B0164F0EF807B00EF1010EBEF16C
:10343C00040FF3D1C2E7042B12D1621D02441EF813
:10344C00015F724545EA0626F9D1721C0CD0B6090B
:10345C0046450DD8B2B2052A38BF05220125ADE785
:10346C0001254FF4B462A9E701254FF6FF72A5E7D9
:10347C0001254FF6FD72A1E700208AE76C030020BE
:10348C0067030020720300206E03002038B5054648
:10349C00FFF7A2FE352385F81A310123032185F8A5
:1034AC001B311B4B85F81C111A784AB1362285F852
:1034BC001D21042209211B6885F81E21C5F81F3126
:1034CC00144A13785BB132206B1883F81A0104206C
:1034DC0083F81B0112680631C3F81C21C9B23722CC
:1034EC006B1883F81A21022283F81B21012283F81E
:1034FC001C210322002483F81D21FF22284683F877
:10350C001E2183F81F41F53101F06EF8204638BDBD
:10351C007203002077030020F0B59FB006460D46DD
:10352C00174600F009FC044678B9354901A802F0A9
:10353C0099FE01A8FCF704FE642382B201A90EA82F
:10354C00FEF7C0FC20461FB0F0BD55BB2D490B68E3
:10355C000846022B0DD101232B4C0B602B4B2770F3
:10356C001D7000F0D5FB21783046FFF785FE002456
:10357C00E8E7274A14787CB9244A117805290BD935
:10358C00214D14702B7801332B7000F0C1FB29787E
:10359C003046FFF771FED5E7022BE8D9013B0360FB
:1035AC00E5E7194B29461F7830463A46FFF7B2FE3D
:1035BC0004460028C6D029463046FFF7C1FE012834
:1035CC00D5D029463046FFF77AFE02280FD10122CA
:1035DC000C4B294630461A60FFF78CFE29463046C4
:1035EC00FFF7B8FE39463046FFF750FFBFE7052816
:1035FC00BDD10124034B1C6000F094FBA2E700BF7B
:10360C00FA6C0008180100207603002066030020E5
:10361C007703002010B1064B1B68036011B1054BFA
:10362C001B680B6012B1044B1B681360704700BF22
:10363C00770300206E03002067030020014B1878ED
:10364C00704700BF81030020002303495A5CC25419
:10365C000133042BFAD170477C030020002310B5F2
:10366C00411E002011F8012F22B980B1033B5842B2
:10367C00584110BDA2F13004092C05D92E2A05D1D0
:10368C0028B10133DBB2ECE70120EBE7002010BDE1
:10369C002DE9F3410026354B04461E700D4690462D
:1036AC0000F04AFB324B28B9042201201A7002B0F8
:1036BC00BDE8F0812F4F1E70397835230131C9B226
:1036CC0039702D4ACDF8008041F46041204600F05D
:1036DC003FFF3B78012284F82B30234603F82C2F34
:1036EC0004F1350203F8016F9A42FBD101232946FC
:1036FC000C2084F82F30C5F10D07CA190D78D2B201
:10370C00A61825BB01212044013B80F82A30531C0C
:10371C00DBB2234486F82A5083F82A50931CDBB280
:10372C00234483F82A10D31CDBB2234483F82A5099
:10373C00131DDBB2234483F82A10D31F511D2046DE
:10374C0084F82A30C9B200F04FFF2846AFE72E2D7F
:10375C0005D12044013B80F82A301046002311F893
:10376C00012B013386F82A20DBB2C6E78103002047
:10377C007B030020800300201C010020452930B56C
:10378C001AD990F82330352B16D190F82430E02B31
:10379C0012D12B4B90F825201B7893420CD190F82A
:1037AC002B209A4208D190F82D3003F08F03802BF8
:1037BC0004D00122234B1A7000253FE090F82A30E8
:1037CC0031390C33DBB2C21892F82A2012F0C00F38
:1037DC001CD00233DBB2C21892F82B50012D18D03A
:1037EC0003F10802D2B2024492F82B200A3313449C
:1037FC0003F0FF038B42E6DB0322DBE75A1CD2B259
:10380C00841894F82A40002CE3D013468B42F5DB45
:10381C00E1E792F83320042A01D00222CAE7002201
:10382C000A33094CDBB29918014491F82A1011554E
:10383C000132042AF7D10122044B1A70284630BDFC
:10384C00800300207B0300207C03002081030020E8
:10385C0010B586B0FCF7CCFD01230024059303932F
:10386C00094B01A902A804930294FCF771FE38B924
:10387C00FCF7D0FD0198431C5842584106B010BDCE
:10388C00FCF7C8FD2046F9E700F80008B0F5007F0A
:10389C003FBF800000F1006000F5784003683ABF3C
:1038AC0001200B60002070470144B1F5007F0BDD57
:1038BC0000207047830003F1006303F578431B6815
:1038CC00013042F8043B80B28142F3DC01207047A6
:1038DC00B0F5007F2DE9F04105460F461AD2840061
:1038EC0004F1006404F578442368013308D1FCF733
:1038FC007FFD7B1C2AD1FCF78DFD0120BDE8F081FA
:10390C00174E4FF4007132460020FFF7CDFF20B95F
:10391C00FCF780FD0020BDE8F08146F82570FFF72C
:10392C0097FFFCF765FD0F4DDFF83C8005F1784300
:10393C00A3F57843F258294600230220FCF79EFD9C
:10394C000028E5D104354545F0D1D0E73A460023AF
:10395C0021460220FCF792FD0028D9D1CBE700BF0D
:10396C003006002000F8000800000108014B186028
:10397C00704700BF880300207FB50D4B8DF80F00FA
:10398C00186890B1002306AA02F8013D4FF0FF33EE
:10399C000DF10F0100930123FDF76BFE18B17B2194
:1039AC00044802F00FF89DF8170007B05DF804FB0F
:1039BC0088030020156D0008F8B54FF48013124DE4
:1039CC000E462B614FF400530746104C0520236123
:1039DC0076B2FCF711FC06F01F003843FFF7CCFF62
:1039EC00FF20FFF7C9FF002E074603DAFF20FFF781
:1039FC00C3FF074610232B614FF0005305202361B2
:103A0C00FCF7FAFB3846F8BD0008014000100140F5
:103A1C004FF480132DE9F0410F4E0C4633614FF4F7
:103A2C000053804617460D4D05202B61FCF7E4FB37
:103A3C0004F01F0040EA0800FFF79EFF3846FFF72E
:103A4C009BFF102333614FF0005305202B61BDE821
:103A5C00F041FCF7D1BB00BF000801400010014051
:103A6C00F8B54FF48013104D104C2B614FF40053EC
:103A7C000746236105200E46FCF7BEFB3A20FFF7F4
:103A8C007BFF3744BE4209D110232B614FF000530A
:103A9C0005202361BDE8F840FCF7AEBB0020FFF722
:103AAC006BFF06F8010BEDE7000801400010014028
:103ABC00F8B54FF48013104D104C2B614FF400539C
:103ACC000746236105200E46FCF796FB7A20FFF78C
:103ADC0053FF3744BE4209D110232B614FF00053E2
:103AEC0005202361BDE8F840FCF786BB16F8010BF6
:103AFC00FFF742FFEEE700BF000801400010014055
:103B0C0038B50A4D00F060042B78A3420CD0032288
:103B1C001F21A020FFF77CFF2C7062091F21BDE83C
:103B2C0038408020FFF774BF38BD00BF82030020EF
:103B3C0010B50446FFF7E4FF2146BDE81040002015
:103B4C00FFF73ABF38B504460D46FFF7D9FF2A46B2
:103B5C002146BDE838404020FFF75ABF38B504462F
:103B6C000D46C9B2FFF7EEFF601C290AC0B2BDE8D2
:103B7C003840FFF7E7BF014608B5D420FFF7E2FF56
:103B8C00D2200121FFF7DEFF0F20FCF735FBEA20E6
:103B9C00FFF7CEFF10F00101F9D1D220FFF7D2FFD1
:103BAC00D920FFF7C5FF08BD10B50C460146D4203F
:103BBC00FFF7C8FFE1B2D620FFF7C4FF210AD720D8
:103BCC00FFF7C0FFEA20FFF7B3FFC30700D410BD17
:103BDC000F20FCF711FBF5E700F007017520FFF74C
:103BEC00B1BF00004FF4801238B5414B04461A6146
:103BFC004FF400520520C3F81028FCF7FDFAFF2201
:103C0C00002510460021FFF703FF3220FCF7F4FAE1
:103C1C00384B294608201D80FFF7A0FF29460C20B1
:103C2C00FFF79CFF41F6FE110A20FFF797FF41F6C4
:103C3C00FF110420FFF792FF41F6FF710620FFF7FA
:103C4C008DFFB1212C4B38201970FFF77BFF43F20D
:103C5C003F012820FFF782FF4FF2F9713020FFF768
:103C6C007DFF0D21C020FFF76DFF2946C120FFF716
:103C7C0069FF3222C2218020FFF7CAFE40F61241B2
:103C8C00C620FFF76BFF1221C420FFF75BFF40F249
:103C9C00DC51CA20FFF762FF2178E420FFF752FFC6
:103CAC006178E520FFF74EFFA178E220FFF74AFF8D
:103CBC00E178E320FFF746FF2179E020FFF742FF90
:103CCC006179E120FFF73EFF4FF480711020FFF780
:103CDC006BFF1F20FFF714FFC0221B218020FFF772
:103CEC0097FEBDE8384004221F218020FFF790BECC
:103CFC0000080140840300208303002008B57220D3
:103D0C00FFF716FF052884BF0130C0B208BD0000C4
:103D1C00034B3820197841F001011970FFF712BFDD
:103D2C0083030020034B3820197801F0FE01197031
:103D3C00FFF708BF8303002008B51120FFF71BFF16
:103D4C0000F0040008BD70B504460D461F2100208C
:103D5C00FFF732FE10F008061BD141F6FF110220CE
:103D6C00FFF7FCFE04F5CF511F3189B20620FFF797
:103D7C00F5FE324631467A20FFF74AFE29462046A8
:103D8C00FFF796FEBDE8704008221F218020FFF748
:103D9C003FBE1C20FFF7CCFE8307D7D580221F2106
:103DAC001046FFF735FE80221F21A020FFF730FEC2
:103DBC00CCE70000F7B5064639200F46FFF7B8FEF2
:103DCC00002841D0214D00202988FFF7C7FE0DF1B6
:103DDC0006010220FFF744FEBDF806300DF1060186
:103DEC0002202B80FFF73CFEBDF806400DF10601CA
:103DFC00043CA4B20220FFF733FEA642BDF8063005
:103E0C00DCBF06F1FF34A4B213F080031AD039469C
:103E1C002046FFF725FE29880C20FFF79FFE41F670
:103E2C00FE112B880C20013B9BB28B4298BF19468C
:103E3C00FFF794FE40221E218020FFF7E9FD20466B
:103E4C0003B0F0BD1C46E6E70446F8E78403002007
:103E5C00002110B5841C10F8013BA3F13002D2B242
:103E6C00092A05D9A3F16102052A09D8573BDAB210
:103E7C0002F00F03A04243EA0111ECD1C8B210BD0D
:103E8C00A3F14102052A01D8373BF0E71A46EFE7C8
:103E9C0070B5002164240A26C51C10F8013BA3F15F
:103EAC003002D2B2092A98BF1346A84204FB031170
:103EBC00B4FBF6F4F1D1C8B270BD00002DE9F843A3
:103ECC001F461F4B88461B781646834209D000229A
:103EDC001C4B11461B684FF4FA7098470020BDE844
:103EEC00F8830029FAD10C2FF8D9164B1D68002D38
:103EFC00F4D0154B1B6803EB020999F8080002F08B
:103F0C001FF9B8B199F80940303C092C16D899F82A
:103F1C000B103039092911D8A0B200EB800499F8A4
:103F2C000A00303800EB440080B200EB800001EB5B
:103F3C00400080B23A463146A847CFE74046F9E701
:103F4C00D60300209C03002094030020012AF0B526
:103F5C001AD101F109034C0800EB4405421C03354E
:103F6C000232AA4214D1C4EBC43201EB420189B231
:103F7C0019B110F8142003EB02231A0C10D1D843FA
:103F8C0080B2F0BD0023E6E7022AFBD18B1EE2E7EC
:103F9C0012F8037C12F8026C46EA07263344DFE77A
:103FAC009BB21344E9E7000020B1034B02681A608E
:103FBC0082889A80704700BFC203002010B508B9F0
:103FCC0041B910BD0023074AC45C9C540133042B37
:103FDC00FAD1F5E70023044AC85C98540133042B4A
:103FEC00FAD110BDBE0300202301002010B500F152
:103FFC00190301391D3013F8014F11F8012F9442A8
:10400C0003D18342F7D1012010BD002010BD000068
:10401C00282910B513D9037B082B10D1437B062B11
:10402C000DD1084A00F12503293013F8014F12F87D
:10403C00011F8C4203D18342F7D1012010BD002017
:10404C0010BD00BFBD030020292930B5034615D98A
:10405C00027B082A12D1407B80B99A7B452A0ED16B
:10406C00074903F11D02213312F8015F11F8014FCA
:10407C00A54204D19A42F7D1012030BD002030BDB9
:10408C00BD030020064A431D0B30597803F8051C6C
:10409C0012F8011F03F8011F8342F6D1704700BFCD
:1040AC00C10300200022402310B5142104460375DF
:1040BC0083750276427642750E30FFF747FF030A8E
:1040CC002376607610BD000010B4084A00F1190385
:1040DC0000F11D015C785C7112F8014F03F8014F7F
:1040EC008B42F7D110BCFFF7DDBF00BFBD03002032
:1040FC0010B500F12E032A3013F8054C214489B277
:10410C0013F8014C03F8011D32B103F8044C98422A
:10411C004FEA1121F0D110BD03F8042CF7E738B5A4
:10412C0090F8243090F8225080F8223080F82450F7
:10413C0090F8253090F8235080F8233080F82550E3
:10414C000446FFF7D5FF002384F8323084F833306F
:10415C00502384F82E3038BD10B50446FFF792FF7B
:10416C00002302222375234603F8152F0D4A04F170
:10417C001B015878D87212F8010F03F8010F8B420B
:10418C00F7D1094A04F11F015878D87212F8010FBF
:10419C0003F8010F8B42F7D12146BDE810402A20CD
:1041AC00FFF7D1BDC1030020BD03002038B5044684
:1041BC000D46FFF767FF2046FFF786FF002384F8C4
:1041CC00223094F824302146F72B88BF94F8252010
:1041DC0003F1080384BF013284F8252084F82430CD
:1041EC002846BDE83840FFF7AEBD027C437C90F812
:1041FC002E0043EA022302094FF6EC70A0EB82007A
:10420C00184400B220EAE07080B2704710B5891AE9
:10421C00531812F8014B9BB20CB9184610BD03444D
:10422C0083F83640F4E7F0B5D5188E1A9419AA42E3
:10423C00A4B202D1194488B2F0BD12F8017B044437
:10424C0084F83670F2E770B5054610460E461446F3
:10425C00FBF776FF2246C3B231462846BDE87040D4
:10426C00FFF7E1BF2DE9F3413D4B1B78834274D13D
:10427C003C4B3D4D1978DFF828813C4F3C4E2C6867
:10428C0001BB3C4A2046FFF7C1FFD8F8002001468D
:10429C002046FFF7BBFF3A6801462046FFF7D3FFE5
:1042AC00354A01462046FFF7B1FF326801462046E9
:1042BC00FFF7ACFF314A01462046FFF7A7FF02B0DB
:1042CC00BDE8F0812E4A00212046FFF79FFFD8F869
:1042DC00002001462046FFF799FF3A680146204628
:1042EC00FFF7B1FF274A01462046FFF78FFF3268E0
:1042FC0001462046FFF78AFF234B01461E684EB14C
:10430C00224A2046FFF782FF324601462046FFF73D
:10431C007DFF01461E4A2046FFF778FF1D4A0146E5
:10432C002046FFF773FF07461B4E3068FBF708FF6C
:10433C0069460A2201F02CFF2C686A463946204651
:10434C00FFF781FF154A01462046FFF75FFF3268F1
:10435C0001462046FFF777FFB1E70020AFE700BF2B
:10436C00D60300209203002094030020B403002005
:10437C00A0030020386D00083D6D00084F6D00084B
:10438C00826D0008886D000898030020036E0008F9
:10439C009A6D0008BF6D0008A4030020D06D0008C2
:1043AC00B003002070B5164604460D46FFF76AFEB2
:1043BC0046F01003042E84F82F3021D1A9B201222B
:1043CC002046FFF7ACFE0025282320466374257495
:1043DC00FFF77AFE042384F8315084F830301C2126
:1043EC0004F11A000222FFF7B1FD030A84F833002E
:1043FC0084F832302146BDE870403620FFF7A3BC6C
:10440C00002D08BF0125D9E738B501F128039BB26F
:10441C001A0A0D46027443740446FFF743FE002348
:10442C0005F11C0184F8323084F8333089B204F180
:10443C001A000222FFF78AFD030A84F8330005F103
:10444C00360084F832302146BDE8384080B2FFF7A0
:10445C007ABC000010B411B948B910BC70470023E5
:10446C00044ACC5C9C540133042BFAD1F4E710BC05
:10447C00FFF79ABDBE030020024B020A1A70024BD2
:10448C0018707047D70300202901002038B5044666
:10449C000025FFF7F7FD2C23204663742574FFF7E6
:1044AC0013FE12232A4684F82F3020460121FFF7F1
:1044BC0036FE174A84F82650137884F8275084F86F
:1044CC00283003331370042384F83730052384F821
:1044DC0038306023022284F82E300A2384F82950C5
:1044EC0084F8303084F8362084F8395084F8315010
:1044FC00202104F11A00FFF729FD030A84F8330088
:10450C0084F832302146BDE838403A20FFF71BBC16
:10451C002701002038B5084B0D460022B3F90010D6
:10452C000446FFF73FFF1923294684F82F30204615
:10453C00BDE83840FFF768BFBC030020013A01B961
:10454C00704712F8013F013900F8013B89B2F6E7D8
:10455C002DE9F041044617460E46002206981E4DE2
:10456C009846631E815C03F8011F515D0132062AD7
:10457C009971F7D1082300252373184A04F10E0012
:10458C0065730921FFF7DAFF154B16481A78257465
:10459C00E27401321A7011232A46E37504F11903EF
:1045AC00B95C5971115C0132042A03F8011FF7D16F
:1045BC004FEA182384F82430330A84F8223000237D
:1045CC0084F8258084F8236084F8263084F8283019
:1045DC0084F82930BDE8F081C20300202F6D00085B
:1045EC0022010020BE03002038B50D46044601F11F
:1045FC001C039BB243741B0A0374FFF753FD05F1B4
:10460C0008039BB284F8273005F110011B0A84F8CB
:10461C00263089B204F11A000122FFF797FC84F8C6
:10462C002900000A84F8280005F12A002146BDE87B
:10463C00384080B2FFF787BBF8B51B4F04463A7879
:10464C000E4682B3194D4FF0FF0E2A46431E411DF4
:10465C0003F801EF12F8010F8B429871F8D1082181
:10466C00062321736373124A04F10E00FFF766FFF1
:10467C00002104F1150304F11B0215F8010F03F8D6
:10468C00010F93429972F8D10022B15CD972B95CD6
:10469C000132042A03F8011FF7D12146BDE8F84086
:1046AC002A20FFF750BBF8BDBE030020C103002039
:1046BC00276D0008024B1878023818BF012070478C
:1046CC0091030020074B1A600122074B1A70074B0D
:1046DC00074A19700023C15C99540133042BFAD199
:1046EC00704700BF300E0020910300208C03002087
:1046FC008D0300202DE9F04117460026044688461C
:10470C00431E39493948325C03F8012F725C01367B
:10471C00062E9A71F7D10823002523736573344A4A
:10472C0004F10E000921FFF709FF2C23314A6374B1
:10473C0013783148E374013313702B462F4DE67513
:10474C0004F11902595D5171195C0133042B02F803
:10475C00011FF7D12046FFF7A5FC3B0A84F8243053
:10476C000B2384F82230002384F8257084F82380EE
:10477C0004F1250204F12D0102F8013F8A42FBD11C
:10478C001F4984F831300A7884F8323084F82820B4
:10479C0003320A7084F8333084F8343084F83530BE
:1047AC006022042384F82E2084F837300222EE2372
:1047BC00032184F8393084F8301084F82F2084F8E1
:1047CC00362084F83820202104F11A00FFF7BEFBB4
:1047DC00030A84F8330084F832302146BDE8F041F6
:1047EC003A20FFF7B0BA00BFC2030020CB03002071
:1047FC002F6D000822010020BE030020D2030020F0
:10480C002701002030B5114D039C28601048016031
:10481C00002110485D5C0D5401310429FAD10023AC
:10482C000D49E05C58540133062BFAD10B4B1A801E
:10483C0001220B4B1A700B4B1A780132D2B2072A99
:10484C0088BF00221A70187830BD00BFAC0300205E
:10485C00A8030020D2030020CB030020C8030020B3
:10486C00CA030020D1030020F7B507460E461546B3
:10487C001C46FFF761FAA0B100220B4B0B491F60DD
:10488C000B4B0C481E600C4B1D600C4B1A70099B9B
:10489C000B4A146000935022089BFFF7B3FF094B9F
:1048AC00187003B0F0BD00BFB003002071420008C7
:1048BC00B4030020C93E0008A0030020920300208E
:1048CC009C030020D60300202DE9F04104460F463E
:1048DC0000293FD1A84DA94E2B78092B09D1B6F947
:1048EC000030B3B9FFF728FA18B1A5492046FFF7F5
:1048FC00A3FE2B78012B0CD1FFF71EFA48B1A0496F
:10490C002046FFF799FE2B7843F008032B70002309
:10491C00338033889B4D013333802B78012B01D0AE
:10492C00002539E0FFF708FA0028F9D00223964A4F
:10493C002B70137820460133DBB21370934A03F0CB
:10494C001F03117843EA4111914BC9B21A88FFF742
:10495C00D1FEE5E7FFF75CFB08B3637D012B02D1C9
:10496C002046FFF7F9FB844E33781B07D8D5677DBB
:10497C00022FD5D10422824904F11C0001F02EFC37
:10498C0005460028CCD1834B83491B6804F11602E1
:10499C0009787B48984737702846BDE8F08139463E
:1049AC002046FFF751FB0028BAD0E37D012B0ED136
:1049BC0094F82230082BB3D1784B1B6813B104F157
:1049CC001A00984739462046FFF7F0FBA8E7352F29
:1049DC00A6D9062BA4D194F824300B2B40F09D8043
:1049EC006F4B704920461C60FFF700FB002897D0E6
:1049FC0094F82F10DFF88C8111F0040F0DD06A4B56
:104A0C001D6835B1002394F825001A46032140098E
:104A1C00A847062388F8003082E72046FFF7E5FB1D
:104A2C0098F800300646022B28D101F01203122B05
:104A3C0016D1002220461146FFF7B4FC182384F847
:104A4C002F305A4B196821B194F82300400988473C
:104A5C0001460323204688F80030FFF7D5FC5FE7BA
:104A6C000123CF064EBF0021C11889B2042209B21E
:104A7C00204688F80030FFF795FC51E7032B25D131
:104A8C0020B3042388F80030474B1D68F5B194F827
:104A9C002E20FB1F1209920022329342DCBFA7F199
:104AAC00080292B213189F42A8BF034694F825003F
:104ABC00BCBFBB1A9BB200214009A84730B10922E8
:104ACC0031B22046FFF76EFC0523A3E798F80030BF
:104ADC0094F82F50052B02D1EE069AD420E7062B22
:104AEC000BD1ED064EBF0021711C89B2042209B214
:104AFC002046FFF757FC07238CE715F0010503D080
:104B0C00711C012209B2DCE7002E3FF409AF2A46E2
:104B1C0031B22046FFF746FC3EE7254A12789A420E
:104B2C007FF4FEAE234B94F825201B789A427FF439
:104B3C00F7AE94F82F10880703D52046FFF7A6FC94
:104B4C00EEE6CA067FF5ECAE2046FFF74EFB1A4B9D
:104B5C000546188028B9CB077FF5E2AE0246014620
:104B6C00D7E794F82E50073F2D09AD002235AF4200
:104B7C003FF712AFD4E600BF9103002020010020C4
:104B8C008D030020CA03002028010020D10300203F
:104B9C00C8030020300E00208C030020B803002036
:104BAC0094030020D2030020AC030020A8030020B3
:104BBC00D703002029010020BC030020BFF34F8F36
:104BCC000549064BCA6802F4E0621343CB60BFF39D
:104BDC004F8F00BFFDE700BF00ED00E00400FA05B9
:104BEC00012906D100230349D05C58540133062B0C
:104BFC00FAD170478613002000B50C4B9BB01A7885
:104C0C00C8280CBF0A490B49013201A81A7001F0DF
:104C1C0029FB01A8FBF794FA642382B201A9064888
:104C2C00FDF750F91BB05DF804FB00BFDE0300205C
:104C3C008D6F0008966F00085012002010B52E4A98
:104C4C009EB0D17813780291917805A80191527891
:104C5C0064210092294A01F0D1FA05A8FBF770FAF9
:104C6C00274C82B205A964232046FDF72BF9254A6F
:104C7C0005A8D1781378029191780191527864212A
:104C8C000092214A01F0BAFA05A8FBF759FA05A9D6
:104C9C0082B264232046FDF715F91C4A05A8D17889
:104CAC001378029191780191527864210092184AFC
:104CBC0001F0A4FA05A8FBF743FA05A982B2642314
:104CCC002046FDF7FFF8134A05A8D1781378029116
:104CDC00917801915278642100920F4A01F08EFA7A
:104CEC0005A8FBF72DFA642382B205A92046FDF72F
:104CFC00E9F81EB010BD00BF450E00202C6E000858
:104D0C00501200203A0E0020496E0008DE120020DE
:104D1C00686E0008490E0020856E000810B58AB038
:104D2C0001A90320FEF7B2FD2F4B9DF8042001A929
:104D3C001A709DF8052001205A709DF806202B4C06
:104D4C009A709DF80720DA70FEF7A0FD9DF80430EC
:104D5C0001A923709DF80530022063709DF8063080
:104D6C00A3709DF80730E370FEF790FD9DF80430BA
:104D7C0001A923719DF8053004206371FEF786FDAF
:104D8C009DF804001A4A1B4B1B49107008701870D0
:104D9C009DF805004870507058709DF8060088709A
:104DAC00907098709DF80700C870D070D8706946E4
:104DBC000520FEF76BFD009B104A190A5170190C67
:104DCC00137091701B0E0E4902A8D37001F04AFAB1
:104DDC0002A8FBF7B5F9642382B202A90948FDF7D2
:104DEC0071F80AB010BD00BF450E002080130020E2
:104DFC002C010020DE1200203A0E0020410E002073
:104E0C00A46E00085012002010B57423002463F324
:104E1C000704692363F30F2463F31744232363F319
:104E2C001F6488B021460120FEF752FD302363F346
:104E3C000704312363F30F246FF317446FF31F64DC
:104E4C0021460220FEF744FD0E490320FEF740FDEB
:104E5C000D490420FEF73CFD210C09040520FEF74A
:104E6C0037FD0A49684601F0FDF96846FBF768F919
:104E7C00642382B269460648FDF724F8FFF74EFF1B
:104E8C0008B010BD0A0A004D0A0A0063B56E00088E
:104E9C005012002010B540F688048AB001A90820F1
:104EAC00FEF7F4FC019BA3421AD002A8FBF748F9C9
:104EBC000D4A014602A801F0A1F902A8FBF740F93E
:104ECC0002A982B264230948FCF7FCFFFEF7C0FC80
:104EDC00FFF79AFF21460820FEF7FAFC0AB010BD36
:104EEC00FFF71CFFFAE700BF066E00085012002007
:104EFC0000B5224A22495078ADF22C6D0B781090F7
:104F0C0012780F921F4A50780E9012780D921E4A0A
:104F1C00D0780C9090780B9050780A901278099277
:104F2C001A4A5079089010790790D07806909078AA
:104F3C00059050780490127813A80392CA780292C4
:104F4C008A7801924A7840F2DC510092104A01F0C2
:104F5C0055F9104B40F2DC511B78012B13AB0CBFF5
:104F6C000D4A0E4A184601F049F913AA00210C48C3
:104F7C00FFF74CF90DF22C6D5DF804FB4D0E002083
:104F8C00450E00203E0E00203A0E0020801300201B
:104F9C005F710008410E002089700008AC6F00089A
:104FAC004F0E00202DE9F047B64EA2B031464FF41B
:104FBC008060FEF7FFFEB44C014620803046FFF7C0
:104FCC0083FCB24DA0462880002800F0CA81B04C6A
:104FDC001C21627923780492227909A80392E27841
:104FEC000292A278019262780092AA4A01F006F924
:104FFC00288809A9304401F04FF9F8B10027A64BD5
:10500C003A464FF40071A5481F70FBF7D5FBA44935
:10501C0009A801F027F909A8FBF792F8642382B2DA
:10502C0009A9A048FCF74EFF39469F4A3046FFF7C6
:10503C00EDF8014628803046FFF76CFA6279237848
:10504C00049222791D210392E27809A80292A27897
:10505C00019262780092954A01F0D0F8288809A94B
:10506C00304401F019F9F0B101228B4B4FF400716F
:10507C008A481A70FBF7A0FB8D4909A801F0F2F8D9
:10508C0009A8FBF75DF8642382B209A98548FCF7EF
:10509C0019FF0021874A7B48FFF7B8F801462880A2
:1050AC007848FFF737FAB5F800900622824906EBEC
:1050BC00090001F0DFF8002840F03D81074609F1B6
:1050CC000609A5F80090DFF804A2DFF804920A2183
:1050DC003B464A4606A801F091F8B5F8008006A9AF
:1050EC0006EB080001F0D8F858B108F1040080B2C2
:1050FC0028803044FEF7CCFE2B880AF807000433D6
:10510C002B800137042FE2D14FF00008DFF8C49157
:10511C000A2143464A4606A801F070F82F8806A9D2
:10512C00F01901F0B9F850B1781D80B228803044E4
:10513C00FEF78EFE2B8804F8080003332B8008F151
:10514C000108B8F1060FE3D14FF00008DFF88891A1
:10515C00DFF86CA10A2143464A4606A801F04EF836
:10516C002F8806A9F01901F097F850B1781D80B27C
:10517C0028803044FEF78CFE2B880AF80800043394
:10518C002B8008F10108B8F1040FE3D14B4906A8B4
:10519C0001F068F82B8806A91E44304601F07CF813
:1051AC00DFF8389118B1737A303B89F8003000265B
:1051BC00DFF81881424FD8F800100320FEF788FB67
:1051CC0039680420FEF784FB2378012063F307067B
:1051DC00637863F30F26A37863F31746E37863F3DE
:1051EC001F663146FEF774FB2379022063F3070632
:1051FC00637963F30F266FF317466FF31F6631461F
:10520C00FEF766FB99F80030052063F3070626F4D9
:10521C007F41FEF75DFB98F8032098F8003002926E
:10522C0098F802206421019298F8012009A80092B4
:10523C00244A00F0E3FF09A8FAF782FF642382B244
:10524C0009A91848FCF73EFEFA783B780292BA7826
:10525C00642101927A7809A800921B4A00F0CEFFD3
:10526C0009A8FAF76DFF642382B209A90D48FCF76F
:10527C0029FE627923780492227964210392E278E0
:10528C002EE000BF4F0E0020340E002094120020A0
:10529C0080130020427800084D0E0020000C0140C5
:1052AC006A78000850120020FA750008817800080E
:1052BC00A878000879760008BE780008D378000832
:1052CC003A0E0020DD78000803790008450E002016
:1052DC00CD780008C5780008CC780008410E002075
:1052EC0009A80292A2780192627800925E4A00F0BC
:1052FC0085FF09A8FAF724FF642382B209A95B4849
:10530C00FCF7E0FD5A4A00215A48FEF79CFF014683
:10531C0028805848FFF7FEF8574909A800F0A2FF6B
:10532C0009A8FAF70DFF642382B209A94F48FCF7CC
:10533C00C9FDFFF743FCFFF7DBFD014628804D4814
:10534C00FFF7E8F84D4909A800F08CFF09A8FAF717
:10535C00F7FE642382B209A94448FCF7B3FD00238D
:10536C002B80FEF7E9FC00287BD0B8F80030002B2E
:10537C006DD1434E337833B9424A01214248FFF78D
:10538C00A1F901233370FFF795F920B93378012B7C
:10539C0004BF022333703D4C3D4F94F80090B9F19B
:1053AC00000F0ED13378022B16D1FEF7C5FC40B19D
:1053BC000123384A38492F4887F800902370FEF7AC
:1053CC0067F92378012B07D1FEF738F920B10223B6
:1053DC0032482370FEF738F92378022B04D03B783F
:1053EC003C2B84BF002323702D4C2278012A26D11C
:1053FC0000233B7002232B4A237013782A49013374
:10540C0013700A230422009309A82E2300F023FE14
:10541C00204B214A0193214B244900932448254BCE
:10542C00FFF722FA244909A800F01CFF09A8FAF793
:10543C0087FE642382B209A90C48FCF743FD3B7834
:10544C003C2B04D92378022B04BF002323702B8818
:10545C0023B9B8F800100748FEF790F922B0BDE860
:10546C00F087164959E700BF2D790008501200202B
:10547C00D16E00084F0E00205E7900087679000886
:10548C00D9030020ED4B0008DE120020D8030020C9
:10549C00DB03002086130020857900082C010020F6
:1054AC00DC030020DD030020901200208C13002070
:1054BC0091790008054C000893790008C979000817
:1054CC00032330B595B00A934FF4803300220B932D
:1054DC000124022512934FF480130AA80C920E9407
:1054EC0011951393FBF764FD00B1FEE70F230593B1
:1054FC004FF4806307900990214605A80695089300
:10550C00FBF71EFF00B1FEE7102301934FF480035D
:10551C0001A80493FBF7DEFF044600B1FEE7FBF79E
:10552C00B3FF4FF47A73B0FBF3F0FAF7C9FE042023
:10553C00FAF7DCFE224621464FF0FF30FAF780FEE8
:10554C0015B030BD80B5A6B0FAF732FEFFF7B8FF44
:10555C00714B4FF400519A69704842F010029A61F5
:10556C009A69002402F010020792079A9A690125A1
:10557C0042F020029A619A694FF4007602F0200200
:10558C000892089A9A694FF4827742F004029A6161
:10559C009A6902F004020992099A9A6942F0080287
:1055AC009A619B69002203F008030A930A9BFBF79C
:1055BC0003F9002210215A48FBF7FEF800224FF4A1
:1055CC0000715848FBF7F8F84FF400530DA95348F5
:1055DC000D930E950F941095FBF708F804230D937B
:1055EC00514B0DA94E480E930F94FAF7FFFF102361
:1055FC000DA94B480D930E950F941095FAF7F6FFE5
:10560C0046F201030DA947480D930E940F95FAF736
:10561C00EDFF02230DA9434810930D960E950F94A0
:10562C00FAF7E4FF224621460820FAF709FE082083
:10563C00FAF73AFE3D483E4B846080E88800082328
:10564C00C3610A23C46004614461866104624462DC
:10565C008462C362FCF70AF900B1FEE74FF4E1344F
:10566C00344B354A986083E814000C22D8601861DA
:10567C009861D86118465A61FCF7F6FB00B1FEE759
:10568C004FF0804149F63F434FF47A792B4CA060A0
:10569C002061A061204684E80A00C4F80C90FCF755
:1056AC00D1FA00B1FEE74FF480580DA92046CDF891
:1056BC003480FCF72EF900B1FEE720270C900BA9E3
:1056CC0020460B97FCF7D8FA064600B1FEE700F02F
:1056DC00C3FA4BF680331A4C1A4A204684E80C0065
:1056EC008023A660C4F80C9026616661A361FCF768
:1056FC00A9FA00B1FEE70DA92046CDF83480FCF7DD
:10570C0008F900B1FEE70C900BA920460B97FCF7AB
:10571C00B3FAC8B1FEE700BF001002400010014010
:10572C0000080140000C014000002110E81200208C
:10573C00003001405012002000380140401300207E
:10574C0098120020002C014029468048FBF72EF8C7
:10575C0008B9FFF759FBFFF79DFB7D490DA800F039
:10576C0081FD0DA8FAF7ECFC7A4C82B264230DA9EA
:10577C007948FCF7A7FB7948FEF7F8F82046FEF7C6
:10578C0031FA0220FEF728FAFEF7B8FA002800F0EA
:10579C00CE80FEF7B3FA724A034664210DA800F0DE
:1057AC002DFD0DA8FAF7CCFC642382B20DA96A4832
:1057BC00FCF788FB40F276411420FEF7F5F962798C
:1057CC0023780492227964210392E2780DA8029244
:1057DC00A278019262780092624A00F00FFD0DA847
:1057EC00FAF7AEFC642382B20DA95B48FCF76AFBA6
:1057FC005D4B1B78012B40F08A8000235B4D5C488D
:10580C002B70FCF76EF85A48FCF778F82046FEF738
:10581C00CBFB58490DA800F025FD0DA8FAF790FC1C
:10582C00642382B20DA94C48FCF74CFB524FDFF8B5
:10583C0064812E78CEB1514C514922465148FDF726
:10584C00E9FE4F494F48FEF7B9FB2378EBB94E49B7
:10585C000DA800F007FD0DA8FAF772FC642382B2C4
:10586C000DA93D48FCF72EFBFEE743494FF4806041
:10587C00FEF7A0FA62790146A8F800003E4887F8C6
:10588C000064FDF749FE2870D3E740490DA800F0ED
:10589C00E9FC0DA8FAF754FC642382B20DA92E483A
:1058AC00FCF710FBFFF7CAF92046394A0121FEF735
:1058BC0009FF314C374DFEF7FDFEE8B93648FDF7D0
:1058CC00CDFE18B13449354800F088FB2D492148EC
:1058DC00FEF7C0FD5020FEF7CFFD0126304C314DB8
:1058EC00238801339BB2322B238082BF00232E707E
:1058FC002380FFF757FBF3E721464FF48060FEF758
:10590C0059FA014628802046FEF7DEFFD3E72649E8
:10591C000DA800F0A7FC0DA8FAF712FC642382B2C4
:10592C000DA90D48FCF7CEFAFFF788F9CEE71F4911
:10593C000DA800F097FC0DA8FAF702FC642382B2C4
:10594C000DA90548FCF7BEFAFFF738F9000C014029
:10595C00F77600088013002050120020E812002077
:10596C000977000846770008410E0020DA03002072
:10597C00981200206B7700084F0E0020DE120020DA
:10598C00490E0020450E0020A1770008D4770008AE
:10599C00ED4B0008340E0020857900082C01002006
:1059AC002A010020DC030020E877000801780008B9
:1059BC00042803D10122024B1A70704700BF7047B4
:1059CC00400E0020FEE70000254B07B59A69032026
:1059DC0042F001029A619A6902F001020092009A67
:1059EC00DA6942F08052DA61DB6903F0805301938B
:1059FC00019BFAF713FC00226FF00B001146FAF72B
:105A0C001FFC00226FF00A001146FAF719FC002265
:105A1C006FF009001146FAF713FC00226FF0040036
:105A2C001146FAF70DFC00226FF003001146FAF74D
:105A3C0007FC00226FF001001146FAF701FC00226E
:105A4C004FF0FF301146FAF7FBFB064A536823F080
:105A5C00E06343F00073536003B05DF804FB00BFD8
:105A6C0000100240000001407FB50268114B9A42C1
:105A7C001DD103F560439A6902A942F480529A61E0
:105A8C009B690D4803F480530193019BA02302935F
:105A9C000223039303230593FAF7A8FD40230293F3
:105AAC00002302A9044803930493FAF79FFD07B05F
:105ABC005DF804FB003001400008014007B50368A5
:105ACC00164A934214D1164B19209A6942F400627B
